{
  "_format": "hh-sol-artifact-1",
  "contractName": "Captchain",
  "sourceName": "contracts/Captchain.sol",
  "abi": [
    {
      "inputs": [
        {
          "internalType": "string",
          "name": "_name",
          "type": "string"
        },
        {
          "internalType": "string",
          "name": "_customId",
          "type": "string"
        },
        {
          "internalType": "string",
          "name": "_initialResult",
          "type": "string"
        }
      ],
      "stateMutability": "nonpayable",
      "type": "constructor"
    },
    {
      "anonymous": false,
      "inputs": [
        {
          "indexed": false,
          "internalType": "address",
          "name": "_user",
          "type": "address"
        },
        {
          "indexed": false,
          "internalType": "address",
          "name": "captchaAddress",
          "type": "address"
        },
        {
          "indexed": false,
          "internalType": "string",
          "name": "customId",
          "type": "string"
        },
        {
          "indexed": false,
          "internalType": "bool",
          "name": "_success",
          "type": "bool"
        }
      ],
      "name": "CaptchaAttempt",
      "type": "event"
    },
    {
      "anonymous": false,
      "inputs": [
        {
          "indexed": true,
          "internalType": "address",
          "name": "previousOwner",
          "type": "address"
        },
        {
          "indexed": true,
          "internalType": "address",
          "name": "newOwner",
          "type": "address"
        }
      ],
      "name": "OwnershipTransferred",
      "type": "event"
    },
    {
      "inputs": [
        {
          "internalType": "string",
          "name": "_result",
          "type": "string"
        }
      ],
      "name": "attempt",
      "outputs": [],
      "stateMutability": "nonpayable",
      "type": "function"
    },
    {
      "inputs": [
        {
          "internalType": "string",
          "name": "a",
          "type": "string"
        },
        {
          "internalType": "string",
          "name": "b",
          "type": "string"
        }
      ],
      "name": "compareStrings",
      "outputs": [
        {
          "internalType": "bool",
          "name": "",
          "type": "bool"
        }
      ],
      "stateMutability": "pure",
      "type": "function"
    },
    {
      "inputs": [],
      "name": "owner",
      "outputs": [
        {
          "internalType": "address",
          "name": "",
          "type": "address"
        }
      ],
      "stateMutability": "view",
      "type": "function"
    },
    {
      "inputs": [],
      "name": "renounceOwnership",
      "outputs": [],
      "stateMutability": "nonpayable",
      "type": "function"
    },
    {
      "inputs": [
        {
          "internalType": "address",
          "name": "newOwner",
          "type": "address"
        }
      ],
      "name": "transferOwnership",
      "outputs": [],
      "stateMutability": "nonpayable",
      "type": "function"
    }
  ],
  "bytecode": "0x60806040523480156200001157600080fd5b506040516200102838038062001028833981810160405281019062000037919062000299565b620000576200004b620000ab60201b60201c565b620000b360201b60201c565b82600190805190602001906200006f92919062000177565b5080600390805190602001906200008892919062000177565b508160029080519060200190620000a192919062000177565b50505050620004aa565b600033905090565b60008060009054906101000a900473ffffffffffffffffffffffffffffffffffffffff169050816000806101000a81548173ffffffffffffffffffffffffffffffffffffffff021916908373ffffffffffffffffffffffffffffffffffffffff1602179055508173ffffffffffffffffffffffffffffffffffffffff168173ffffffffffffffffffffffffffffffffffffffff167f8be0079c531659141344cd1fd0a4f28419497f9722a3daafe3b4186f6b6457e060405160405180910390a35050565b8280546200018590620003cf565b90600052602060002090601f016020900481019282620001a95760008555620001f5565b82601f10620001c457805160ff1916838001178555620001f5565b82800160010185558215620001f5579182015b82811115620001f4578251825591602001919060010190620001d7565b5b50905062000204919062000208565b5090565b5b808211156200022357600081600090555060010162000209565b5090565b60006200023e620002388462000363565b6200033a565b9050828152602081018484840111156200025757600080fd5b6200026484828562000399565b509392505050565b600082601f8301126200027e57600080fd5b81516200029084826020860162000227565b91505092915050565b600080600060608486031215620002af57600080fd5b600084015167ffffffffffffffff811115620002ca57600080fd5b620002d8868287016200026c565b935050602084015167ffffffffffffffff811115620002f657600080fd5b62000304868287016200026c565b925050604084015167ffffffffffffffff8111156200032257600080fd5b62000330868287016200026c565b9150509250925092565b60006200034662000359565b905062000354828262000405565b919050565b6000604051905090565b600067ffffffffffffffff8211156200038157620003806200046a565b5b6200038c8262000499565b9050602081019050919050565b60005b83811015620003b95780820151818401526020810190506200039c565b83811115620003c9576000848401525b50505050565b60006002820490506001821680620003e857607f821691505b60208210811415620003ff57620003fe6200043b565b5b50919050565b620004108262000499565b810181811067ffffffffffffffff821117156200043257620004316200046a565b5b80604052505050565b7f4e487b7100000000000000000000000000000000000000000000000000000000600052602260045260246000fd5b7f4e487b7100000000000000000000000000000000000000000000000000000000600052604160045260246000fd5b6000601f19601f8301169050919050565b610b6e80620004ba6000396000f3fe608060405234801561001057600080fd5b50600436106100575760003560e01c8063715018a61461005c5780638da5cb5b14610066578063aeddbfc014610084578063bed34bba146100a0578063f2fde38b146100d0575b600080fd5b6100646100ec565b005b61006e610174565b60405161007b91906107ba565b60405180910390f35b61009e600480360381019061009991906105be565b61019d565b005b6100ba60048036038101906100b591906105ff565b6102fb565b6040516100c79190610821565b60405180910390f35b6100ea60048036038101906100e59190610595565b610354565b005b6100f461044c565b73ffffffffffffffffffffffffffffffffffffffff16610112610174565b73ffffffffffffffffffffffffffffffffffffffff1614610168576040517f08c379a000000000000000000000000000000000000000000000000000000000815260040161015f9061087c565b60405180910390fd5b6101726000610454565b565b60008060009054906101000a900473ffffffffffffffffffffffffffffffffffffffff16905090565b600061023382600380546101b0906109ae565b80601f01602080910402602001604051908101604052809291908181526020018280546101dc906109ae565b80156102295780601f106101fe57610100808354040283529160200191610229565b820191906000526020600020905b81548152906001019060200180831161020c57829003601f168201915b50505050506102fb565b9050806102b9577e89ba2e02006919c6e72430d36362fd60dff02291d9b6b204318147ba2b91cf33306002600060405161027094939291906107d5565b60405180910390a1806102b8576040517f08c379a00000000000000000000000000000000000000000000000000000000081526004016102af9061085c565b60405180910390fd5b5b7e89ba2e02006919c6e72430d36362fd60dff02291d9b6b204318147ba2b91cf3330600260016040516102ef94939291906107d5565b60405180910390a15050565b60008160405160200161030e91906107a3565b604051602081830303815290604052805190602001208360405160200161033591906107a3565b6040516020818303038152906040528051906020012014905092915050565b61035c61044c565b73ffffffffffffffffffffffffffffffffffffffff1661037a610174565b73ffffffffffffffffffffffffffffffffffffffff16146103d0576040517f08c379a00000000000000000000000000000000000000000000000000000000081526004016103c79061087c565b60405180910390fd5b600073ffffffffffffffffffffffffffffffffffffffff168173ffffffffffffffffffffffffffffffffffffffff161415610440576040517f08c379a00000000000000000000000000000000000000000000000000000000081526004016104379061083c565b60405180910390fd5b61044981610454565b50565b600033905090565b60008060009054906101000a900473ffffffffffffffffffffffffffffffffffffffff169050816000806101000a81548173ffffffffffffffffffffffffffffffffffffffff021916908373ffffffffffffffffffffffffffffffffffffffff1602179055508173ffffffffffffffffffffffffffffffffffffffff168173ffffffffffffffffffffffffffffffffffffffff167f8be0079c531659141344cd1fd0a4f28419497f9722a3daafe3b4186f6b6457e060405160405180910390a35050565b600061052b610526846108c1565b61089c565b90508281526020810184848401111561054357600080fd5b61054e84828561096c565b509392505050565b60008135905061056581610b21565b92915050565b600082601f83011261057c57600080fd5b813561058c848260208601610518565b91505092915050565b6000602082840312156105a757600080fd5b60006105b584828501610556565b91505092915050565b6000602082840312156105d057600080fd5b600082013567ffffffffffffffff8111156105ea57600080fd5b6105f68482850161056b565b91505092915050565b6000806040838503121561061257600080fd5b600083013567ffffffffffffffff81111561062c57600080fd5b6106388582860161056b565b925050602083013567ffffffffffffffff81111561065557600080fd5b6106618582860161056b565b9150509250929050565b6106748161092e565b82525050565b61068381610940565b82525050565b600061069482610907565b61069e8185610923565b93506106ae81856020860161097b565b80840191505092915050565b600081546106c7816109ae565b6106d18186610912565b945060018216600081146106ec57600181146106fe57610731565b60ff1983168652602086019350610731565b610707856108f2565b60005b838110156107295781548189015260018201915060208101905061070a565b808801955050505b50505092915050565b6000610747602683610912565b915061075282610a80565b604082019050919050565b600061076a600983610912565b915061077582610acf565b602082019050919050565b600061078d602083610912565b915061079882610af8565b602082019050919050565b60006107af8284610689565b915081905092915050565b60006020820190506107cf600083018461066b565b92915050565b60006080820190506107ea600083018761066b565b6107f7602083018661066b565b818103604083015261080981856106ba565b9050610818606083018461067a565b95945050505050565b6000602082019050610836600083018461067a565b92915050565b600060208201905081810360008301526108558161073a565b9050919050565b600060208201905081810360008301526108758161075d565b9050919050565b6000602082019050818103600083015261089581610780565b9050919050565b60006108a66108b7565b90506108b282826109e0565b919050565b6000604051905090565b600067ffffffffffffffff8211156108dc576108db610a40565b5b6108e582610a6f565b9050602081019050919050565b60008190508160005260206000209050919050565b600081519050919050565b600082825260208201905092915050565b600081905092915050565b60006109398261094c565b9050919050565b60008115159050919050565b600073ffffffffffffffffffffffffffffffffffffffff82169050919050565b82818337600083830152505050565b60005b8381101561099957808201518184015260208101905061097e565b838111156109a8576000848401525b50505050565b600060028204905060018216806109c657607f821691505b602082108114156109da576109d9610a11565b5b50919050565b6109e982610a6f565b810181811067ffffffffffffffff82111715610a0857610a07610a40565b5b80604052505050565b7f4e487b7100000000000000000000000000000000000000000000000000000000600052602260045260246000fd5b7f4e487b7100000000000000000000000000000000000000000000000000000000600052604160045260246000fd5b6000601f19601f8301169050919050565b7f4f776e61626c653a206e6577206f776e657220697320746865207a65726f206160008201527f6464726573730000000000000000000000000000000000000000000000000000602082015250565b7f496e636f72726563740000000000000000000000000000000000000000000000600082015250565b7f4f776e61626c653a2063616c6c6572206973206e6f7420746865206f776e6572600082015250565b610b2a8161092e565b8114610b3557600080fd5b5056fea2646970667358221220f2222a737823d90f305d8407cc5901636420a0a1eea5f82b8af21cf44bd9fbb664736f6c63430008040033",
  "linkReferences": {},
  "deployedLinkReferences": {}
}