{
  "_format": "hh-sol-artifact-1",
  "contractName": "Captchain",
  "sourceName": "contracts/Captchain.sol",
  "abi": [
    {
      "inputs": [
        {
          "internalType": "string",
          "name": "_name",
          "type": "string"
        },
        {
          "internalType": "string",
          "name": "_callbackUrl",
          "type": "string"
        },
        {
          "internalType": "string",
          "name": "_keyword",
          "type": "string"
        }
      ],
      "stateMutability": "nonpayable",
      "type": "constructor"
    },
    {
      "anonymous": false,
      "inputs": [
        {
          "indexed": false,
          "internalType": "address",
          "name": "_user",
          "type": "address"
        },
        {
          "indexed": false,
          "internalType": "address",
          "name": "captchaAddress",
          "type": "address"
        },
        {
          "indexed": false,
          "internalType": "string",
          "name": "name",
          "type": "string"
        },
        {
          "indexed": false,
          "internalType": "bool",
          "name": "_success",
          "type": "bool"
        }
      ],
      "name": "CaptchaAttempt",
      "type": "event"
    },
    {
      "anonymous": false,
      "inputs": [
        {
          "indexed": true,
          "internalType": "bytes32",
          "name": "id",
          "type": "bytes32"
        }
      ],
      "name": "ChainlinkCancelled",
      "type": "event"
    },
    {
      "anonymous": false,
      "inputs": [
        {
          "indexed": true,
          "internalType": "bytes32",
          "name": "id",
          "type": "bytes32"
        }
      ],
      "name": "ChainlinkFulfilled",
      "type": "event"
    },
    {
      "anonymous": false,
      "inputs": [
        {
          "indexed": true,
          "internalType": "bytes32",
          "name": "id",
          "type": "bytes32"
        }
      ],
      "name": "ChainlinkRequested",
      "type": "event"
    },
    {
      "anonymous": false,
      "inputs": [
        {
          "indexed": true,
          "internalType": "address",
          "name": "from",
          "type": "address"
        },
        {
          "indexed": true,
          "internalType": "address",
          "name": "to",
          "type": "address"
        }
      ],
      "name": "OwnershipTransferRequested",
      "type": "event"
    },
    {
      "anonymous": false,
      "inputs": [
        {
          "indexed": true,
          "internalType": "address",
          "name": "from",
          "type": "address"
        },
        {
          "indexed": true,
          "internalType": "address",
          "name": "to",
          "type": "address"
        }
      ],
      "name": "OwnershipTransferred",
      "type": "event"
    },
    {
      "inputs": [],
      "name": "acceptOwnership",
      "outputs": [],
      "stateMutability": "nonpayable",
      "type": "function"
    },
    {
      "inputs": [
        {
          "internalType": "uint256",
          "name": "_value",
          "type": "uint256"
        },
        {
          "internalType": "string",
          "name": "_keyword",
          "type": "string"
        }
      ],
      "name": "attempt",
      "outputs": [
        {
          "internalType": "string",
          "name": "",
          "type": "string"
        }
      ],
      "stateMutability": "nonpayable",
      "type": "function"
    },
    {
      "inputs": [],
      "name": "attempts",
      "outputs": [
        {
          "internalType": "uint256",
          "name": "",
          "type": "uint256"
        }
      ],
      "stateMutability": "view",
      "type": "function"
    },
    {
      "inputs": [
        {
          "internalType": "string",
          "name": "a",
          "type": "string"
        },
        {
          "internalType": "string",
          "name": "b",
          "type": "string"
        }
      ],
      "name": "compareStrings",
      "outputs": [
        {
          "internalType": "bool",
          "name": "",
          "type": "bool"
        }
      ],
      "stateMutability": "pure",
      "type": "function"
    },
    {
      "inputs": [
        {
          "internalType": "string",
          "name": "a",
          "type": "string"
        },
        {
          "internalType": "string",
          "name": "b",
          "type": "string"
        }
      ],
      "name": "concat",
      "outputs": [
        {
          "internalType": "string",
          "name": "",
          "type": "string"
        }
      ],
      "stateMutability": "nonpayable",
      "type": "function"
    },
    {
      "inputs": [
        {
          "internalType": "bytes32",
          "name": "_requestId",
          "type": "bytes32"
        },
        {
          "internalType": "uint256",
          "name": "_price",
          "type": "uint256"
        }
      ],
      "name": "fulfill",
      "outputs": [],
      "stateMutability": "nonpayable",
      "type": "function"
    },
    {
      "inputs": [],
      "name": "lastConcat",
      "outputs": [
        {
          "internalType": "string",
          "name": "",
          "type": "string"
        }
      ],
      "stateMutability": "view",
      "type": "function"
    },
    {
      "inputs": [
        {
          "internalType": "string",
          "name": "_covalentKey",
          "type": "string"
        }
      ],
      "name": "loadValue",
      "outputs": [
        {
          "internalType": "bytes32",
          "name": "requestId",
          "type": "bytes32"
        }
      ],
      "stateMutability": "nonpayable",
      "type": "function"
    },
    {
      "inputs": [],
      "name": "owner",
      "outputs": [
        {
          "internalType": "address",
          "name": "",
          "type": "address"
        }
      ],
      "stateMutability": "view",
      "type": "function"
    },
    {
      "inputs": [
        {
          "internalType": "address",
          "name": "to",
          "type": "address"
        }
      ],
      "name": "transferOwnership",
      "outputs": [],
      "stateMutability": "nonpayable",
      "type": "function"
    },
    {
      "inputs": [],
      "name": "value",
      "outputs": [
        {
          "internalType": "uint256",
          "name": "",
          "type": "uint256"
        }
      ],
      "stateMutability": "view",
      "type": "function"
    }
  ],
  "bytecode": "0x608060405260016004556064600c556040518060800160405280605e815260200162003182605e9139600d90805190602001906200003f9291906200042f565b503480156200004d57600080fd5b50604051620031e0380380620031e083398181016040528101906200007391906200055d565b338060008073ffffffffffffffffffffffffffffffffffffffff168273ffffffffffffffffffffffffffffffffffffffff161415620000e9576040517f08c379a0000000000000000000000000000000000000000000000000000000008152600401620000e09062000664565b60405180910390fd5b81600660006101000a81548173ffffffffffffffffffffffffffffffffffffffff021916908373ffffffffffffffffffffffffffffffffffffffff160217905550600073ffffffffffffffffffffffffffffffffffffffff168173ffffffffffffffffffffffffffffffffffffffff1614620001715762000170816200027560201b60201c565b5b50505082601090805190602001906200018c9291906200042f565b5080600a9080519060200190620001a59291906200042f565b508160119080519060200190620001be9291906200042f565b506107d06009819055506000600b81905550620001f57384b9b910527ad5c03a9ca831909e21e236ea7b06620003a760201b60201c565b6200021a7319f7f3bf88cb208b0c422cc2b8e2bd23ee461dd1620003eb60201b60201c565b7f3962333234343266353564373433363262323663363038633665396262383063600e819055506064670de0b6b3a764000060016200025a919062000750565b62000266919062000718565b600f8190555050505062000990565b3373ffffffffffffffffffffffffffffffffffffffff168173ffffffffffffffffffffffffffffffffffffffff161415620002e7576040517f08c379a0000000000000000000000000000000000000000000000000000000008152600401620002de9062000686565b60405180910390fd5b80600760006101000a81548173ffffffffffffffffffffffffffffffffffffffff021916908373ffffffffffffffffffffffffffffffffffffffff1602179055508073ffffffffffffffffffffffffffffffffffffffff16600660009054906101000a900473ffffffffffffffffffffffffffffffffffffffff1673ffffffffffffffffffffffffffffffffffffffff167fed8889f560326eb138920d842192f0eb3dd22b4f139c87a2c57538e05bae127860405160405180910390a350565b80600260006101000a81548173ffffffffffffffffffffffffffffffffffffffff021916908373ffffffffffffffffffffffffffffffffffffffff16021790555050565b80600360006101000a81548173ffffffffffffffffffffffffffffffffffffffff021916908373ffffffffffffffffffffffffffffffffffffffff16021790555050565b8280546200043d90620007f1565b90600052602060002090601f016020900481019282620004615760008555620004ad565b82601f106200047c57805160ff1916838001178555620004ad565b82800160010185558215620004ad579182015b82811115620004ac5782518255916020019190600101906200048f565b5b509050620004bc9190620004c0565b5090565b5b80821115620004db576000816000905550600101620004c1565b5090565b6000620004f6620004f084620006d1565b620006a8565b9050828152602081018484840111156200051557620005146200091e565b5b62000522848285620007bb565b509392505050565b600082601f83011262000542576200054162000919565b5b815162000554848260208601620004df565b91505092915050565b60008060006060848603121562000579576200057862000928565b5b600084015167ffffffffffffffff8111156200059a576200059962000923565b5b620005a8868287016200052a565b935050602084015167ffffffffffffffff811115620005cc57620005cb62000923565b5b620005da868287016200052a565b925050604084015167ffffffffffffffff811115620005fe57620005fd62000923565b5b6200060c868287016200052a565b9150509250925092565b60006200062560188362000707565b915062000632826200093e565b602082019050919050565b60006200064c60178362000707565b9150620006598262000967565b602082019050919050565b600060208201905081810360008301526200067f8162000616565b9050919050565b60006020820190508181036000830152620006a1816200063d565b9050919050565b6000620006b4620006c7565b9050620006c2828262000827565b919050565b6000604051905090565b600067ffffffffffffffff821115620006ef57620006ee620008ea565b5b620006fa826200092d565b9050602081019050919050565b600082825260208201905092915050565b60006200072582620007b1565b91506200073283620007b1565b9250826200074557620007446200088c565b5b828204905092915050565b60006200075d82620007b1565b91506200076a83620007b1565b9250817fffffffffffffffffffffffffffffffffffffffffffffffffffffffffffffffff0483118215151615620007a657620007a56200085d565b5b828202905092915050565b6000819050919050565b60005b83811015620007db578082015181840152602081019050620007be565b83811115620007eb576000848401525b50505050565b600060028204905060018216806200080a57607f821691505b60208210811415620008215762000820620008bb565b5b50919050565b62000832826200092d565b810181811067ffffffffffffffff82111715620008545762000853620008ea565b5b80604052505050565b7f4e487b7100000000000000000000000000000000000000000000000000000000600052601160045260246000fd5b7f4e487b7100000000000000000000000000000000000000000000000000000000600052601260045260246000fd5b7f4e487b7100000000000000000000000000000000000000000000000000000000600052602260045260246000fd5b7f4e487b7100000000000000000000000000000000000000000000000000000000600052604160045260246000fd5b600080fd5b600080fd5b600080fd5b600080fd5b6000601f19601f8301169050919050565b7f43616e6e6f7420736574206f776e657220746f207a65726f0000000000000000600082015250565b7f43616e6e6f74207472616e7366657220746f2073656c66000000000000000000600082015250565b6127e280620009a06000396000f3fe608060405234801561001057600080fd5b50600436106100a95760003560e01c806379ba50971161007157806379ba50971461015457806389c19ddb1461015e5780638da5cb5b1461018e578063bed34bba146101ac578063d3d52455146101dc578063f2fde38b1461020c576100a9565b806306bab67d146100ae5780633beba5c7146100cc5780633fa4f245146100fc5780634357855e1461011a5780635754a04214610136575b600080fd5b6100b6610228565b6040516100c39190611ee0565b60405180910390f35b6100e660048036038101906100e19190611a21565b6102b6565b6040516100f39190611ee0565b60405180910390f35b6101046104f1565b6040516101119190611fc2565b60405180910390f35b610134600480360381019061012f9190611920565b6104f7565b005b61013e610608565b60405161014b9190611fc2565b60405180910390f35b61015c61060e565b005b610178600480360381019061017391906119a9565b6107a5565b6040516101859190611ee0565b60405180910390f35b610196610872565b6040516101a39190611d80565b60405180910390f35b6101c660048036038101906101c191906119a9565b61089c565b6040516101d39190611eaa565b60405180910390f35b6101f660048036038101906101f19190611960565b6108f5565b6040516102039190611ec5565b60405180910390f35b610226600480360381019061022191906118c6565b610bf7565b005b60088054610235906123d6565b80601f0160208091040260200160405190810160405280929190818152602001828054610261906123d6565b80156102ae5780601f10610283576101008083540402835291602001916102ae565b820191906000526020600020905b81548152906001019060200180831161029157829003601f168201915b505050505081565b60606001600b546102c7919061208b565b600b81905550600061036383600a80546102e0906123d6565b80601f016020809104026020016040519081016040528092919081815260200182805461030c906123d6565b80156103595780601f1061032e57610100808354040283529160200191610359565b820191906000526020600020905b81548152906001019060200180831161033c57829003601f168201915b505050505061089c565b801561037e5750600c5460095461037a91906122ac565b8410155b80156103995750600c54600954610395919061208b565b8411155b90508061041f577e89ba2e02006919c6e72430d36362fd60dff02291d9b6b204318147ba2b91cf3330601060006040516103d69493929190611d9b565b60405180910390a18061041e576040517f08c379a000000000000000000000000000000000000000000000000000000000815260040161041590611f22565b60405180910390fd5b5b7e89ba2e02006919c6e72430d36362fd60dff02291d9b6b204318147ba2b91cf3330601060016040516104559493929190611d9b565b60405180910390a16011805461046a906123d6565b80601f0160208091040260200160405190810160405280929190818152602001828054610496906123d6565b80156104e35780601f106104b8576101008083540402835291602001916104e3565b820191906000526020600020905b8154815290600101906020018083116104c657829003601f168201915b505050505091505092915050565b60095481565b816005600082815260200190815260200160002060009054906101000a900473ffffffffffffffffffffffffffffffffffffffff1673ffffffffffffffffffffffffffffffffffffffff163373ffffffffffffffffffffffffffffffffffffffff1614610599576040517f08c379a000000000000000000000000000000000000000000000000000000000815260040161059090611fa2565b60405180910390fd5b6005600082815260200190815260200160002060006101000a81549073ffffffffffffffffffffffffffffffffffffffff0219169055807f7cc135e0cebb02c3480ae5d74d377283180a2601f8f644edf7987b009316c63a60405160405180910390a281600981905550505050565b600b5481565b600760009054906101000a900473ffffffffffffffffffffffffffffffffffffffff1673ffffffffffffffffffffffffffffffffffffffff163373ffffffffffffffffffffffffffffffffffffffff161461069e576040517f08c379a000000000000000000000000000000000000000000000000000000000815260040161069590611f02565b60405180910390fd5b6000600660009054906101000a900473ffffffffffffffffffffffffffffffffffffffff16905033600660006101000a81548173ffffffffffffffffffffffffffffffffffffffff021916908373ffffffffffffffffffffffffffffffffffffffff1602179055506000600760006101000a81548173ffffffffffffffffffffffffffffffffffffffff021916908373ffffffffffffffffffffffffffffffffffffffff1602179055503373ffffffffffffffffffffffffffffffffffffffff168173ffffffffffffffffffffffffffffffffffffffff167f8be0079c531659141344cd1fd0a4f28419497f9722a3daafe3b4186f6b6457e060405160405180910390a350565b606082826040516020016107ba929190611d51565b604051602081830303815290604052600890805190602001906107de9291906116d8565b50600880546107ec906123d6565b80601f0160208091040260200160405190810160405280929190818152602001828054610818906123d6565b80156108655780601f1061083a57610100808354040283529160200191610865565b820191906000526020600020905b81548152906001019060200180831161084857829003601f168201915b5050505050905092915050565b6000600660009054906101000a900473ffffffffffffffffffffffffffffffffffffffff16905090565b6000816040516020016108af9190611d3a565b60405160208183030381529060405280519060200120836040516020016108d69190611d3a565b6040516020818303038152906040528051906020012014905092915050565b60008061090c600e5430634357855e60e01b610c0b565b905060006109a4600d8054610920906123d6565b80601f016020809104026020016040519081016040528092919081815260200182805461094c906123d6565b80156109995780601f1061096e57610100808354040283529160200191610999565b820191906000526020600020905b81548152906001019060200180831161097c57829003601f168201915b5050505050856107a5565b90506109f06040518060400160405280600381526020017f67657400000000000000000000000000000000000000000000000000000000008152508284610c3c9092919063ffffffff16565b6000600467ffffffffffffffff811115610a0d57610a0c61259d565b5b604051908082528060200260200182016040528015610a4057816020015b6060815260200190600190039081610a2b5790505b5090506040518060400160405280600481526020017f646174610000000000000000000000000000000000000000000000000000000081525081600081518110610a8d57610a8c61256e565b5b60200260200101819052506040518060400160405280600581526020017f6974656d7300000000000000000000000000000000000000000000000000000081525081600181518110610ae257610ae161256e565b5b60200260200101819052506040518060400160405280600181526020017f300000000000000000000000000000000000000000000000000000000000000081525081600281518110610b3757610b3661256e565b5b60200260200101819052506040518060400160405280600a81526020017f71756f74655f726174650000000000000000000000000000000000000000000081525081600381518110610b8c57610b8b61256e565b5b6020026020010181905250610be16040518060400160405280600481526020017f70617468000000000000000000000000000000000000000000000000000000008152508285610c6f9092919063ffffffff16565b610bed83600f54610cf6565b9350505050919050565b610bff610d2d565b610c0881610dbf565b50565b610c1361175e565b610c1b61175e565b610c3285858584610eee909392919063ffffffff16565b9150509392505050565b610c53828460800151610f9e90919063ffffffff16565b610c6a818460800151610f9e90919063ffffffff16565b505050565b610c86828460800151610f9e90919063ffffffff16565b610c938360800151610fc3565b60005b8151811015610ce357610cd0828281518110610cb557610cb461256e565b5b60200260200101518560800151610f9e90919063ffffffff16565b8080610cdb90612439565b915050610c96565b50610cf18360800151610fd1565b505050565b6000610d25600360009054906101000a900473ffffffffffffffffffffffffffffffffffffffff168484610fdf565b905092915050565b600660009054906101000a900473ffffffffffffffffffffffffffffffffffffffff1673ffffffffffffffffffffffffffffffffffffffff163373ffffffffffffffffffffffffffffffffffffffff1614610dbd576040517f08c379a0000000000000000000000000000000000000000000000000000000008152600401610db490611f62565b60405180910390fd5b565b3373ffffffffffffffffffffffffffffffffffffffff168173ffffffffffffffffffffffffffffffffffffffff161415610e2e576040517f08c379a0000000000000000000000000000000000000000000000000000000008152600401610e2590611f82565b60405180910390fd5b80600760006101000a81548173ffffffffffffffffffffffffffffffffffffffff021916908373ffffffffffffffffffffffffffffffffffffffff1602179055508073ffffffffffffffffffffffffffffffffffffffff16600660009054906101000a900473ffffffffffffffffffffffffffffffffffffffff1673ffffffffffffffffffffffffffffffffffffffff167fed8889f560326eb138920d842192f0eb3dd22b4f139c87a2c57538e05bae127860405160405180910390a350565b610ef661175e565b610f0685608001516101006110ab565b508385600001818152505082856020019073ffffffffffffffffffffffffffffffffffffffff16908173ffffffffffffffffffffffffffffffffffffffff16815250508185604001907bffffffffffffffffffffffffffffffffffffffffffffffffffffffff191690817bffffffffffffffffffffffffffffffffffffffffffffffffffffffff191681525050849050949350505050565b610fab8260038351611115565b610fbe818361129a90919063ffffffff16565b505050565b610fce8160046112bc565b50565b610fdc8160076112bc565b50565b6000806004549050600181610ff4919061208b565b6004819055506000634042994660e01b60008087600001513089604001518760018c6080015160000151604051602401611035989796959493929190611de7565b604051602081830303815290604052907bffffffffffffffffffffffffffffffffffffffffffffffffffffffff19166020820180517bffffffffffffffffffffffffffffffffffffffffffffffffffffffff838183161783525050505090506110a0868386846112de565b925050509392505050565b6110b36117cb565b60006020836110c291906124b0565b146110ee576020826110d491906124b0565b60206110e091906122ac565b826110eb919061208b565b91505b81836020018181525050604051808452600081528281016020016040525082905092915050565b60178167ffffffffffffffff161161114c576111468160058460ff16901b60ff16178461148290919063ffffffff16565b50611295565b60ff8167ffffffffffffffff16116111a25761117b601860058460ff16901b178461148290919063ffffffff16565b5061119c8167ffffffffffffffff166001856114a29092919063ffffffff16565b50611294565b61ffff8167ffffffffffffffff16116111f9576111d2601960058460ff16901b178461148290919063ffffffff16565b506111f38167ffffffffffffffff166002856114a29092919063ffffffff16565b50611293565b63ffffffff8167ffffffffffffffff16116112525761122b601a60058460ff16901b178461148290919063ffffffff16565b5061124c8167ffffffffffffffff166004856114a29092919063ffffffff16565b50611292565b61126f601b60058460ff16901b178461148290919063ffffffff16565b506112908167ffffffffffffffff166008856114a29092919063ffffffff16565b505b5b5b5b505050565b6112a26117cb565b6112b4838460000151518485516114c4565b905092915050565b6112d9601f60058360ff16901b178361148290919063ffffffff16565b505050565b600030846040516020016112f3929190611d0e565b604051602081830303815290604052805190602001209050846005600083815260200190815260200160002060006101000a81548173ffffffffffffffffffffffffffffffffffffffff021916908373ffffffffffffffffffffffffffffffffffffffff160217905550807fb5e6e01e79f91267dc17b4e6314d5d4d03593d2ceee0fbb452b750bd70ea5af960405160405180910390a2600260009054906101000a900473ffffffffffffffffffffffffffffffffffffffff1673ffffffffffffffffffffffffffffffffffffffff16634000aea08685856040518463ffffffff1660e01b81526004016113e993929190611e6c565b602060405180830381600087803b15801561140357600080fd5b505af1158015611417573d6000803e3d6000fd5b505050506040513d601f19601f8201168201806040525081019061143b91906118f3565b61147a576040517f08c379a000000000000000000000000000000000000000000000000000000000815260040161147190611f42565b60405180910390fd5b949350505050565b61148a6117cb565b61149a83846000015151846115b3565b905092915050565b6114aa6117cb565b6114bb84856000015151858561160a565b90509392505050565b6114cc6117cb565b82518211156114da57600080fd5b846020015182856114eb919061208b565b11156115205761151f8560026115108860200151888761150b919061208b565b611698565b61151a9190612252565b6116b4565b5b60008086518051876020830101935080888701111561153f5787860182525b60208701925050505b602084106115865780518252602082611561919061208b565b9150602081611570919061208b565b905060208461157f91906122ac565b9350611548565b60006001856020036101000a03905080198251168184511681811785525050508692505050949350505050565b6115bb6117cb565b836020015183106115e1576115e084600286602001516115db9190612252565b6116b4565b5b83518051602085830101848153818614156115fd576001820183525b5050508390509392505050565b6116126117cb565b84602001518483611623919061208b565b111561164b5761164a856002868561163b919061208b565b6116459190612252565b6116b4565b5b600060018361010061165d9190612134565b61166791906122ac565b9050855183868201018583198251161781528151858801111561168a5784870182525b505085915050949350505050565b6000818311156116aa578290506116ae565b8190505b92915050565b6000826000015190506116c783836110ab565b506116d2838261129a565b50505050565b8280546116e4906123d6565b90600052602060002090601f016020900481019282611706576000855561174d565b82601f1061171f57805160ff191683800117855561174d565b8280016001018555821561174d579182015b8281111561174c578251825591602001919060010190611731565b5b50905061175a91906117e5565b5090565b6040518060a0016040528060008019168152602001600073ffffffffffffffffffffffffffffffffffffffff16815260200160007bffffffffffffffffffffffffffffffffffffffffffffffffffffffff19168152602001600081526020016117c56117cb565b81525090565b604051806040016040528060608152602001600081525090565b5b808211156117fe5760008160009055506001016117e6565b5090565b600061181561181084612002565b611fdd565b905082815260208101848484011115611831576118306125d1565b5b61183c848285612394565b509392505050565b60008135905061185381612750565b92915050565b60008151905061186881612767565b92915050565b60008135905061187d8161277e565b92915050565b600082601f830112611898576118976125cc565b5b81356118a8848260208601611802565b91505092915050565b6000813590506118c081612795565b92915050565b6000602082840312156118dc576118db6125db565b5b60006118ea84828501611844565b91505092915050565b600060208284031215611909576119086125db565b5b600061191784828501611859565b91505092915050565b60008060408385031215611937576119366125db565b5b60006119458582860161186e565b9250506020611956858286016118b1565b9150509250929050565b600060208284031215611976576119756125db565b5b600082013567ffffffffffffffff811115611994576119936125d6565b5b6119a084828501611883565b91505092915050565b600080604083850312156119c0576119bf6125db565b5b600083013567ffffffffffffffff8111156119de576119dd6125d6565b5b6119ea85828601611883565b925050602083013567ffffffffffffffff811115611a0b57611a0a6125d6565b5b611a1785828601611883565b9150509250929050565b60008060408385031215611a3857611a376125db565b5b6000611a46858286016118b1565b925050602083013567ffffffffffffffff811115611a6757611a666125d6565b5b611a7385828601611883565b9150509250929050565b611a86816122e0565b82525050565b611a95816122f2565b82525050565b611aa4816122fe565b82525050565b611ab381612308565b82525050565b6000611ac482612048565b611ace818561205e565b9350611ade8185602086016123a3565b611ae7816125e0565b840191505092915050565b611b03611afe8261235e565b612482565b82525050565b6000611b1482612053565b611b1e818561206f565b9350611b2e8185602086016123a3565b611b37816125e0565b840191505092915050565b6000611b4d82612053565b611b578185612080565b9350611b678185602086016123a3565b80840191505092915050565b60008154611b80816123d6565b611b8a818661206f565b94506001821660008114611ba55760018114611bb757611bea565b60ff1983168652602086019350611bea565b611bc085612033565b60005b83811015611be257815481890152600182019150602081019050611bc3565b808801955050505b50505092915050565b6000611c0060168361206f565b9150611c0b8261260b565b602082019050919050565b6000611c23601a8361206f565b9150611c2e82612634565b602082019050919050565b6000611c4660238361206f565b9150611c518261265d565b604082019050919050565b6000611c6960168361206f565b9150611c74826126ac565b602082019050919050565b6000611c8c600083612080565b9150611c97826126d5565b600082019050919050565b6000611caf60178361206f565b9150611cba826126d8565b602082019050919050565b6000611cd260288361206f565b9150611cdd82612701565b604082019050919050565b611cf181612354565b82525050565b611d08611d0382612354565b6124a6565b82525050565b6000611d1a8285611af2565b601482019150611d2a8284611cf7565b6020820191508190509392505050565b6000611d468284611b42565b915081905092915050565b6000611d5d8285611b42565b9150611d6882611c7f565b9150611d748284611b42565b91508190509392505050565b6000602082019050611d956000830184611a7d565b92915050565b6000608082019050611db06000830187611a7d565b611dbd6020830186611a7d565b8181036040830152611dcf8185611b73565b9050611dde6060830184611a8c565b95945050505050565b600061010082019050611dfd600083018b611a7d565b611e0a602083018a611ce8565b611e176040830189611a9b565b611e246060830188611a7d565b611e316080830187611aaa565b611e3e60a0830186611ce8565b611e4b60c0830185611ce8565b81810360e0830152611e5d8184611ab9565b90509998505050505050505050565b6000606082019050611e816000830186611a7d565b611e8e6020830185611ce8565b8181036040830152611ea08184611ab9565b9050949350505050565b6000602082019050611ebf6000830184611a8c565b92915050565b6000602082019050611eda6000830184611a9b565b92915050565b60006020820190508181036000830152611efa8184611b09565b905092915050565b60006020820190508181036000830152611f1b81611bf3565b9050919050565b60006020820190508181036000830152611f3b81611c16565b9050919050565b60006020820190508181036000830152611f5b81611c39565b9050919050565b60006020820190508181036000830152611f7b81611c5c565b9050919050565b60006020820190508181036000830152611f9b81611ca2565b9050919050565b60006020820190508181036000830152611fbb81611cc5565b9050919050565b6000602082019050611fd76000830184611ce8565b92915050565b6000611fe7611ff8565b9050611ff38282612408565b919050565b6000604051905090565b600067ffffffffffffffff82111561201d5761201c61259d565b5b612026826125e0565b9050602081019050919050565b60008190508160005260206000209050919050565b600081519050919050565b600081519050919050565b600082825260208201905092915050565b600082825260208201905092915050565b600081905092915050565b600061209682612354565b91506120a183612354565b9250827fffffffffffffffffffffffffffffffffffffffffffffffffffffffffffffffff038211156120d6576120d56124e1565b5b828201905092915050565b6000808291508390505b600185111561212b57808604811115612107576121066124e1565b5b60018516156121165780820291505b8081029050612124856125fe565b94506120eb565b94509492505050565b600061213f82612354565b915061214a83612354565b92506121777fffffffffffffffffffffffffffffffffffffffffffffffffffffffffffffffff848461217f565b905092915050565b60008261218f576001905061224b565b8161219d576000905061224b565b81600181146121b357600281146121bd576121ec565b600191505061224b565b60ff8411156121cf576121ce6124e1565b5b8360020a9150848211156121e6576121e56124e1565b5b5061224b565b5060208310610133831016604e8410600b84101617156122215782820a90508381111561221c5761221b6124e1565b5b61224b565b61222e84848460016120e1565b92509050818404811115612245576122446124e1565b5b81810290505b9392505050565b600061225d82612354565b915061226883612354565b9250817fffffffffffffffffffffffffffffffffffffffffffffffffffffffffffffffff04831182151516156122a1576122a06124e1565b5b828202905092915050565b60006122b782612354565b91506122c283612354565b9250828210156122d5576122d46124e1565b5b828203905092915050565b60006122eb82612334565b9050919050565b60008115159050919050565b6000819050919050565b60007fffffffff0000000000000000000000000000000000000000000000000000000082169050919050565b600073ffffffffffffffffffffffffffffffffffffffff82169050919050565b6000819050919050565b600061236982612370565b9050919050565b600061237b82612382565b9050919050565b600061238d82612334565b9050919050565b82818337600083830152505050565b60005b838110156123c15780820151818401526020810190506123a6565b838111156123d0576000848401525b50505050565b600060028204905060018216806123ee57607f821691505b602082108114156124025761240161253f565b5b50919050565b612411826125e0565b810181811067ffffffffffffffff821117156124305761242f61259d565b5b80604052505050565b600061244482612354565b91507fffffffffffffffffffffffffffffffffffffffffffffffffffffffffffffffff821415612477576124766124e1565b5b600182019050919050565b600061248d82612494565b9050919050565b600061249f826125f1565b9050919050565b6000819050919050565b60006124bb82612354565b91506124c683612354565b9250826124d6576124d5612510565b5b828206905092915050565b7f4e487b7100000000000000000000000000000000000000000000000000000000600052601160045260246000fd5b7f4e487b7100000000000000000000000000000000000000000000000000000000600052601260045260246000fd5b7f4e487b7100000000000000000000000000000000000000000000000000000000600052602260045260246000fd5b7f4e487b7100000000000000000000000000000000000000000000000000000000600052603260045260246000fd5b7f4e487b7100000000000000000000000000000000000000000000000000000000600052604160045260246000fd5b600080fd5b600080fd5b600080fd5b600080fd5b6000601f19601f8301169050919050565b60008160601b9050919050565b60008160011c9050919050565b7f4d7573742062652070726f706f736564206f776e657200000000000000000000600082015250565b7f496e636f72726563742076616c7565206f72206b6579776f7264000000000000600082015250565b7f756e61626c6520746f207472616e73666572416e6443616c6c20746f206f726160008201527f636c650000000000000000000000000000000000000000000000000000000000602082015250565b7f4f6e6c792063616c6c61626c65206279206f776e657200000000000000000000600082015250565b50565b7f43616e6e6f74207472616e7366657220746f2073656c66000000000000000000600082015250565b7f536f75726365206d75737420626520746865206f7261636c65206f662074686560008201527f2072657175657374000000000000000000000000000000000000000000000000602082015250565b612759816122e0565b811461276457600080fd5b50565b612770816122f2565b811461277b57600080fd5b50565b612787816122fe565b811461279257600080fd5b50565b61279e81612354565b81146127a957600080fd5b5056fea26469706673582212204bbc2e97b7cb04e5e4ecbe5840aac46f621cfcceae9500a2f6cfa9fe69c2796164736f6c6343000807003368747470733a2f2f6170692e636f76616c656e7468712e636f6d2f76312f70726963696e672f7469636b6572732f3f71756f74652d63757272656e63793d55534426666f726d61743d4a534f4e267469636b6572733d455448266b65793d",
  "linkReferences": {},
  "deployedLinkReferences": {}
}