{
  "contracts/Captchain.sol": {
    "Captchain": {
      "abi": [
        {
          "inputs": [
            {
              "internalType": "string",
              "name": "_name",
              "type": "string"
            },
            {
              "internalType": "string",
              "name": "_customId",
              "type": "string"
            },
            {
              "internalType": "string",
              "name": "_callbackUrl",
              "type": "string"
            },
            {
              "internalType": "string",
              "name": "_initialResult",
              "type": "string"
            }
          ],
          "stateMutability": "nonpayable",
          "type": "constructor"
        },
        {
          "anonymous": false,
          "inputs": [
            {
              "indexed": false,
              "internalType": "address",
              "name": "_user",
              "type": "address"
            },
            {
              "indexed": false,
              "internalType": "address",
              "name": "captchaAddress",
              "type": "address"
            },
            {
              "indexed": false,
              "internalType": "string",
              "name": "customId",
              "type": "string"
            },
            {
              "indexed": false,
              "internalType": "bool",
              "name": "_success",
              "type": "bool"
            }
          ],
          "name": "CaptchaAttempt",
          "type": "event"
        },
        {
          "anonymous": false,
          "inputs": [
            {
              "indexed": true,
              "internalType": "address",
              "name": "previousOwner",
              "type": "address"
            },
            {
              "indexed": true,
              "internalType": "address",
              "name": "newOwner",
              "type": "address"
            }
          ],
          "name": "OwnershipTransferred",
          "type": "event"
        },
        {
          "inputs": [
            {
              "internalType": "string",
              "name": "_result",
              "type": "string"
            }
          ],
          "name": "attempt",
          "outputs": [
            {
              "internalType": "string",
              "name": "",
              "type": "string"
            }
          ],
          "stateMutability": "nonpayable",
          "type": "function"
        },
        {
          "inputs": [
            {
              "internalType": "string",
              "name": "a",
              "type": "string"
            },
            {
              "internalType": "string",
              "name": "b",
              "type": "string"
            }
          ],
          "name": "compareStrings",
          "outputs": [
            {
              "internalType": "bool",
              "name": "",
              "type": "bool"
            }
          ],
          "stateMutability": "pure",
          "type": "function"
        },
        {
          "inputs": [],
          "name": "owner",
          "outputs": [
            {
              "internalType": "address",
              "name": "",
              "type": "address"
            }
          ],
          "stateMutability": "view",
          "type": "function"
        },
        {
          "inputs": [],
          "name": "renounceOwnership",
          "outputs": [],
          "stateMutability": "nonpayable",
          "type": "function"
        },
        {
          "inputs": [
            {
              "internalType": "address",
              "name": "newOwner",
              "type": "address"
            }
          ],
          "name": "transferOwnership",
          "outputs": [],
          "stateMutability": "nonpayable",
          "type": "function"
        }
      ],
      "evm": {
        "bytecode": {
          "linkReferences": {},
          "object": "60806040523480156200001157600080fd5b5060405162001171380380620011718339818101604052810190620000379190620002b3565b620000576200004b620000c560201b60201c565b620000cd60201b60201c565b83600190805190602001906200006f92919062000191565b5080600390805190602001906200008892919062000191565b508160049080519060200190620000a192919062000191565b508260029080519060200190620000ba92919062000191565b5050505050620004f3565b600033905090565b60008060009054906101000a900473ffffffffffffffffffffffffffffffffffffffff169050816000806101000a81548173ffffffffffffffffffffffffffffffffffffffff021916908373ffffffffffffffffffffffffffffffffffffffff1602179055508173ffffffffffffffffffffffffffffffffffffffff168173ffffffffffffffffffffffffffffffffffffffff167f8be0079c531659141344cd1fd0a4f28419497f9722a3daafe3b4186f6b6457e060405160405180910390a35050565b8280546200019f9062000418565b90600052602060002090601f016020900481019282620001c357600085556200020f565b82601f10620001de57805160ff19168380011785556200020f565b828001600101855582156200020f579182015b828111156200020e578251825591602001919060010190620001f1565b5b5090506200021e919062000222565b5090565b5b808211156200023d57600081600090555060010162000223565b5090565b6000620002586200025284620003ac565b62000383565b9050828152602081018484840111156200027157600080fd5b6200027e848285620003e2565b509392505050565b600082601f8301126200029857600080fd5b8151620002aa84826020860162000241565b91505092915050565b60008060008060808587031215620002ca57600080fd5b600085015167ffffffffffffffff811115620002e557600080fd5b620002f38782880162000286565b945050602085015167ffffffffffffffff8111156200031157600080fd5b6200031f8782880162000286565b935050604085015167ffffffffffffffff8111156200033d57600080fd5b6200034b8782880162000286565b925050606085015167ffffffffffffffff8111156200036957600080fd5b620003778782880162000286565b91505092959194509250565b60006200038f620003a2565b90506200039d82826200044e565b919050565b6000604051905090565b600067ffffffffffffffff821115620003ca57620003c9620004b3565b5b620003d582620004e2565b9050602081019050919050565b60005b8381101562000402578082015181840152602081019050620003e5565b8381111562000412576000848401525b50505050565b600060028204905060018216806200043157607f821691505b6020821081141562000448576200044762000484565b5b50919050565b6200045982620004e2565b810181811067ffffffffffffffff821117156200047b576200047a620004b3565b5b80604052505050565b7f4e487b7100000000000000000000000000000000000000000000000000000000600052602260045260246000fd5b7f4e487b7100000000000000000000000000000000000000000000000000000000600052604160045260246000fd5b6000601f19601f8301169050919050565b610c6e80620005036000396000f3fe608060405234801561001057600080fd5b50600436106100575760003560e01c8063715018a61461005c5780638da5cb5b14610066578063aeddbfc014610084578063bed34bba146100b4578063f2fde38b146100e4575b600080fd5b610064610100565b005b61006e610188565b60405161007b9190610898565b60405180910390f35b61009e60048036038101906100999190610663565b6101b1565b6040516100ab919061091a565b60405180910390f35b6100ce60048036038101906100c991906106a4565b6103a0565b6040516100db91906108ff565b60405180910390f35b6100fe60048036038101906100f9919061063a565b6103f9565b005b6101086104f1565b73ffffffffffffffffffffffffffffffffffffffff16610126610188565b73ffffffffffffffffffffffffffffffffffffffff161461017c576040517f08c379a00000000000000000000000000000000000000000000000000000000081526004016101739061097c565b60405180910390fd5b61018660006104f9565b565b60008060009054906101000a900473ffffffffffffffffffffffffffffffffffffffff16905090565b6060600061024983600380546101c690610aae565b80601f01602080910402602001604051908101604052809291908181526020018280546101f290610aae565b801561023f5780601f106102145761010080835404028352916020019161023f565b820191906000526020600020905b81548152906001019060200180831161022257829003601f168201915b50505050506103a0565b9050806102cf577e89ba2e02006919c6e72430d36362fd60dff02291d9b6b204318147ba2b91cf33306002600060405161028694939291906108b3565b60405180910390a1806102ce576040517f08c379a00000000000000000000000000000000000000000000000000000000081526004016102c59061095c565b60405180910390fd5b5b7e89ba2e02006919c6e72430d36362fd60dff02291d9b6b204318147ba2b91cf33306002600160405161030594939291906108b3565b60405180910390a16004805461031a90610aae565b80601f016020809104026020016040519081016040528092919081815260200182805461034690610aae565b80156103935780601f1061036857610100808354040283529160200191610393565b820191906000526020600020905b81548152906001019060200180831161037657829003601f168201915b5050505050915050919050565b6000816040516020016103b39190610881565b60405160208183030381529060405280519060200120836040516020016103da9190610881565b6040516020818303038152906040528051906020012014905092915050565b6104016104f1565b73ffffffffffffffffffffffffffffffffffffffff1661041f610188565b73ffffffffffffffffffffffffffffffffffffffff1614610475576040517f08c379a000000000000000000000000000000000000000000000000000000000815260040161046c9061097c565b60405180910390fd5b600073ffffffffffffffffffffffffffffffffffffffff168173ffffffffffffffffffffffffffffffffffffffff1614156104e5576040517f08c379a00000000000000000000000000000000000000000000000000000000081526004016104dc9061093c565b60405180910390fd5b6104ee816104f9565b50565b600033905090565b60008060009054906101000a900473ffffffffffffffffffffffffffffffffffffffff169050816000806101000a81548173ffffffffffffffffffffffffffffffffffffffff021916908373ffffffffffffffffffffffffffffffffffffffff1602179055508173ffffffffffffffffffffffffffffffffffffffff168173ffffffffffffffffffffffffffffffffffffffff167f8be0079c531659141344cd1fd0a4f28419497f9722a3daafe3b4186f6b6457e060405160405180910390a35050565b60006105d06105cb846109c1565b61099c565b9050828152602081018484840111156105e857600080fd5b6105f3848285610a6c565b509392505050565b60008135905061060a81610c21565b92915050565b600082601f83011261062157600080fd5b81356106318482602086016105bd565b91505092915050565b60006020828403121561064c57600080fd5b600061065a848285016105fb565b91505092915050565b60006020828403121561067557600080fd5b600082013567ffffffffffffffff81111561068f57600080fd5b61069b84828501610610565b91505092915050565b600080604083850312156106b757600080fd5b600083013567ffffffffffffffff8111156106d157600080fd5b6106dd85828601610610565b925050602083013567ffffffffffffffff8111156106fa57600080fd5b61070685828601610610565b9150509250929050565b61071981610a2e565b82525050565b61072881610a40565b82525050565b600061073982610a07565b6107438185610a12565b9350610753818560208601610a7b565b61075c81610b6f565b840191505092915050565b600061077282610a07565b61077c8185610a23565b935061078c818560208601610a7b565b80840191505092915050565b600081546107a581610aae565b6107af8186610a12565b945060018216600081146107ca57600181146107dc5761080f565b60ff198316865260208601935061080f565b6107e5856109f2565b60005b83811015610807578154818901526001820191506020810190506107e8565b808801955050505b50505092915050565b6000610825602683610a12565b915061083082610b80565b604082019050919050565b6000610848600983610a12565b915061085382610bcf565b602082019050919050565b600061086b602083610a12565b915061087682610bf8565b602082019050919050565b600061088d8284610767565b915081905092915050565b60006020820190506108ad6000830184610710565b92915050565b60006080820190506108c86000830187610710565b6108d56020830186610710565b81810360408301526108e78185610798565b90506108f6606083018461071f565b95945050505050565b6000602082019050610914600083018461071f565b92915050565b60006020820190508181036000830152610934818461072e565b905092915050565b6000602082019050818103600083015261095581610818565b9050919050565b600060208201905081810360008301526109758161083b565b9050919050565b600060208201905081810360008301526109958161085e565b9050919050565b60006109a66109b7565b90506109b28282610ae0565b919050565b6000604051905090565b600067ffffffffffffffff8211156109dc576109db610b40565b5b6109e582610b6f565b9050602081019050919050565b60008190508160005260206000209050919050565b600081519050919050565b600082825260208201905092915050565b600081905092915050565b6000610a3982610a4c565b9050919050565b60008115159050919050565b600073ffffffffffffffffffffffffffffffffffffffff82169050919050565b82818337600083830152505050565b60005b83811015610a99578082015181840152602081019050610a7e565b83811115610aa8576000848401525b50505050565b60006002820490506001821680610ac657607f821691505b60208210811415610ada57610ad9610b11565b5b50919050565b610ae982610b6f565b810181811067ffffffffffffffff82111715610b0857610b07610b40565b5b80604052505050565b7f4e487b7100000000000000000000000000000000000000000000000000000000600052602260045260246000fd5b7f4e487b7100000000000000000000000000000000000000000000000000000000600052604160045260246000fd5b6000601f19601f8301169050919050565b7f4f776e61626c653a206e6577206f776e657220697320746865207a65726f206160008201527f6464726573730000000000000000000000000000000000000000000000000000602082015250565b7f496e636f72726563740000000000000000000000000000000000000000000000600082015250565b7f4f776e61626c653a2063616c6c6572206973206e6f7420746865206f776e6572600082015250565b610c2a81610a2e565b8114610c3557600080fd5b5056fea26469706673582212204a5a827f44473b108ca48ef4b834b3d7ccad2408911ba2b5afa808da5c19800064736f6c63430008040033",
          "opcodes": "PUSH1 0x80 PUSH1 0x40 MSTORE CALLVALUE DUP1 ISZERO PUSH3 0x11 JUMPI PUSH1 0x0 DUP1 REVERT JUMPDEST POP PUSH1 0x40 MLOAD PUSH3 0x1171 CODESIZE SUB DUP1 PUSH3 0x1171 DUP4 CODECOPY DUP2 DUP2 ADD PUSH1 0x40 MSTORE DUP2 ADD SWAP1 PUSH3 0x37 SWAP2 SWAP1 PUSH3 0x2B3 JUMP JUMPDEST PUSH3 0x57 PUSH3 0x4B PUSH3 0xC5 PUSH1 0x20 SHL PUSH1 0x20 SHR JUMP JUMPDEST PUSH3 0xCD PUSH1 0x20 SHL PUSH1 0x20 SHR JUMP JUMPDEST DUP4 PUSH1 0x1 SWAP1 DUP1 MLOAD SWAP1 PUSH1 0x20 ADD SWAP1 PUSH3 0x6F SWAP3 SWAP2 SWAP1 PUSH3 0x191 JUMP JUMPDEST POP DUP1 PUSH1 0x3 SWAP1 DUP1 MLOAD SWAP1 PUSH1 0x20 ADD SWAP1 PUSH3 0x88 SWAP3 SWAP2 SWAP1 PUSH3 0x191 JUMP JUMPDEST POP DUP2 PUSH1 0x4 SWAP1 DUP1 MLOAD SWAP1 PUSH1 0x20 ADD SWAP1 PUSH3 0xA1 SWAP3 SWAP2 SWAP1 PUSH3 0x191 JUMP JUMPDEST POP DUP3 PUSH1 0x2 SWAP1 DUP1 MLOAD SWAP1 PUSH1 0x20 ADD SWAP1 PUSH3 0xBA SWAP3 SWAP2 SWAP1 PUSH3 0x191 JUMP JUMPDEST POP POP POP POP POP PUSH3 0x4F3 JUMP JUMPDEST PUSH1 0x0 CALLER SWAP1 POP SWAP1 JUMP JUMPDEST PUSH1 0x0 DUP1 PUSH1 0x0 SWAP1 SLOAD SWAP1 PUSH2 0x100 EXP SWAP1 DIV PUSH20 0xFFFFFFFFFFFFFFFFFFFFFFFFFFFFFFFFFFFFFFFF AND SWAP1 POP DUP2 PUSH1 0x0 DUP1 PUSH2 0x100 EXP DUP2 SLOAD DUP2 PUSH20 0xFFFFFFFFFFFFFFFFFFFFFFFFFFFFFFFFFFFFFFFF MUL NOT AND SWAP1 DUP4 PUSH20 0xFFFFFFFFFFFFFFFFFFFFFFFFFFFFFFFFFFFFFFFF AND MUL OR SWAP1 SSTORE POP DUP2 PUSH20 0xFFFFFFFFFFFFFFFFFFFFFFFFFFFFFFFFFFFFFFFF AND DUP2 PUSH20 0xFFFFFFFFFFFFFFFFFFFFFFFFFFFFFFFFFFFFFFFF AND PUSH32 0x8BE0079C531659141344CD1FD0A4F28419497F9722A3DAAFE3B4186F6B6457E0 PUSH1 0x40 MLOAD PUSH1 0x40 MLOAD DUP1 SWAP2 SUB SWAP1 LOG3 POP POP JUMP JUMPDEST DUP3 DUP1 SLOAD PUSH3 0x19F SWAP1 PUSH3 0x418 JUMP JUMPDEST SWAP1 PUSH1 0x0 MSTORE PUSH1 0x20 PUSH1 0x0 KECCAK256 SWAP1 PUSH1 0x1F ADD PUSH1 0x20 SWAP1 DIV DUP2 ADD SWAP3 DUP3 PUSH3 0x1C3 JUMPI PUSH1 0x0 DUP6 SSTORE PUSH3 0x20F JUMP JUMPDEST DUP3 PUSH1 0x1F LT PUSH3 0x1DE JUMPI DUP1 MLOAD PUSH1 0xFF NOT AND DUP4 DUP1 ADD OR DUP6 SSTORE PUSH3 0x20F JUMP JUMPDEST DUP3 DUP1 ADD PUSH1 0x1 ADD DUP6 SSTORE DUP3 ISZERO PUSH3 0x20F JUMPI SWAP2 DUP3 ADD JUMPDEST DUP3 DUP2 GT ISZERO PUSH3 0x20E JUMPI DUP3 MLOAD DUP3 SSTORE SWAP2 PUSH1 0x20 ADD SWAP2 SWAP1 PUSH1 0x1 ADD SWAP1 PUSH3 0x1F1 JUMP JUMPDEST JUMPDEST POP SWAP1 POP PUSH3 0x21E SWAP2 SWAP1 PUSH3 0x222 JUMP JUMPDEST POP SWAP1 JUMP JUMPDEST JUMPDEST DUP1 DUP3 GT ISZERO PUSH3 0x23D JUMPI PUSH1 0x0 DUP2 PUSH1 0x0 SWAP1 SSTORE POP PUSH1 0x1 ADD PUSH3 0x223 JUMP JUMPDEST POP SWAP1 JUMP JUMPDEST PUSH1 0x0 PUSH3 0x258 PUSH3 0x252 DUP5 PUSH3 0x3AC JUMP JUMPDEST PUSH3 0x383 JUMP JUMPDEST SWAP1 POP DUP3 DUP2 MSTORE PUSH1 0x20 DUP2 ADD DUP5 DUP5 DUP5 ADD GT ISZERO PUSH3 0x271 JUMPI PUSH1 0x0 DUP1 REVERT JUMPDEST PUSH3 0x27E DUP5 DUP3 DUP6 PUSH3 0x3E2 JUMP JUMPDEST POP SWAP4 SWAP3 POP POP POP JUMP JUMPDEST PUSH1 0x0 DUP3 PUSH1 0x1F DUP4 ADD SLT PUSH3 0x298 JUMPI PUSH1 0x0 DUP1 REVERT JUMPDEST DUP2 MLOAD PUSH3 0x2AA DUP5 DUP3 PUSH1 0x20 DUP7 ADD PUSH3 0x241 JUMP JUMPDEST SWAP2 POP POP SWAP3 SWAP2 POP POP JUMP JUMPDEST PUSH1 0x0 DUP1 PUSH1 0x0 DUP1 PUSH1 0x80 DUP6 DUP8 SUB SLT ISZERO PUSH3 0x2CA JUMPI PUSH1 0x0 DUP1 REVERT JUMPDEST PUSH1 0x0 DUP6 ADD MLOAD PUSH8 0xFFFFFFFFFFFFFFFF DUP2 GT ISZERO PUSH3 0x2E5 JUMPI PUSH1 0x0 DUP1 REVERT JUMPDEST PUSH3 0x2F3 DUP8 DUP3 DUP9 ADD PUSH3 0x286 JUMP JUMPDEST SWAP5 POP POP PUSH1 0x20 DUP6 ADD MLOAD PUSH8 0xFFFFFFFFFFFFFFFF DUP2 GT ISZERO PUSH3 0x311 JUMPI PUSH1 0x0 DUP1 REVERT JUMPDEST PUSH3 0x31F DUP8 DUP3 DUP9 ADD PUSH3 0x286 JUMP JUMPDEST SWAP4 POP POP PUSH1 0x40 DUP6 ADD MLOAD PUSH8 0xFFFFFFFFFFFFFFFF DUP2 GT ISZERO PUSH3 0x33D JUMPI PUSH1 0x0 DUP1 REVERT JUMPDEST PUSH3 0x34B DUP8 DUP3 DUP9 ADD PUSH3 0x286 JUMP JUMPDEST SWAP3 POP POP PUSH1 0x60 DUP6 ADD MLOAD PUSH8 0xFFFFFFFFFFFFFFFF DUP2 GT ISZERO PUSH3 0x369 JUMPI PUSH1 0x0 DUP1 REVERT JUMPDEST PUSH3 0x377 DUP8 DUP3 DUP9 ADD PUSH3 0x286 JUMP JUMPDEST SWAP2 POP POP SWAP3 SWAP6 SWAP2 SWAP5 POP SWAP3 POP JUMP JUMPDEST PUSH1 0x0 PUSH3 0x38F PUSH3 0x3A2 JUMP JUMPDEST SWAP1 POP PUSH3 0x39D DUP3 DUP3 PUSH3 0x44E JUMP JUMPDEST SWAP2 SWAP1 POP JUMP JUMPDEST PUSH1 0x0 PUSH1 0x40 MLOAD SWAP1 POP SWAP1 JUMP JUMPDEST PUSH1 0x0 PUSH8 0xFFFFFFFFFFFFFFFF DUP3 GT ISZERO PUSH3 0x3CA JUMPI PUSH3 0x3C9 PUSH3 0x4B3 JUMP JUMPDEST JUMPDEST PUSH3 0x3D5 DUP3 PUSH3 0x4E2 JUMP JUMPDEST SWAP1 POP PUSH1 0x20 DUP2 ADD SWAP1 POP SWAP2 SWAP1 POP JUMP JUMPDEST PUSH1 0x0 JUMPDEST DUP4 DUP2 LT ISZERO PUSH3 0x402 JUMPI DUP1 DUP3 ADD MLOAD DUP2 DUP5 ADD MSTORE PUSH1 0x20 DUP2 ADD SWAP1 POP PUSH3 0x3E5 JUMP JUMPDEST DUP4 DUP2 GT ISZERO PUSH3 0x412 JUMPI PUSH1 0x0 DUP5 DUP5 ADD MSTORE JUMPDEST POP POP POP POP JUMP JUMPDEST PUSH1 0x0 PUSH1 0x2 DUP3 DIV SWAP1 POP PUSH1 0x1 DUP3 AND DUP1 PUSH3 0x431 JUMPI PUSH1 0x7F DUP3 AND SWAP2 POP JUMPDEST PUSH1 0x20 DUP3 LT DUP2 EQ ISZERO PUSH3 0x448 JUMPI PUSH3 0x447 PUSH3 0x484 JUMP JUMPDEST JUMPDEST POP SWAP2 SWAP1 POP JUMP JUMPDEST PUSH3 0x459 DUP3 PUSH3 0x4E2 JUMP JUMPDEST DUP2 ADD DUP2 DUP2 LT PUSH8 0xFFFFFFFFFFFFFFFF DUP3 GT OR ISZERO PUSH3 0x47B JUMPI PUSH3 0x47A PUSH3 0x4B3 JUMP JUMPDEST JUMPDEST DUP1 PUSH1 0x40 MSTORE POP POP POP JUMP JUMPDEST PUSH32 0x4E487B7100000000000000000000000000000000000000000000000000000000 PUSH1 0x0 MSTORE PUSH1 0x22 PUSH1 0x4 MSTORE PUSH1 0x24 PUSH1 0x0 REVERT JUMPDEST PUSH32 0x4E487B7100000000000000000000000000000000000000000000000000000000 PUSH1 0x0 MSTORE PUSH1 0x41 PUSH1 0x4 MSTORE PUSH1 0x24 PUSH1 0x0 REVERT JUMPDEST PUSH1 0x0 PUSH1 0x1F NOT PUSH1 0x1F DUP4 ADD AND SWAP1 POP SWAP2 SWAP1 POP JUMP JUMPDEST PUSH2 0xC6E DUP1 PUSH3 0x503 PUSH1 0x0 CODECOPY PUSH1 0x0 RETURN INVALID PUSH1 0x80 PUSH1 0x40 MSTORE CALLVALUE DUP1 ISZERO PUSH2 0x10 JUMPI PUSH1 0x0 DUP1 REVERT JUMPDEST POP PUSH1 0x4 CALLDATASIZE LT PUSH2 0x57 JUMPI PUSH1 0x0 CALLDATALOAD PUSH1 0xE0 SHR DUP1 PUSH4 0x715018A6 EQ PUSH2 0x5C JUMPI DUP1 PUSH4 0x8DA5CB5B EQ PUSH2 0x66 JUMPI DUP1 PUSH4 0xAEDDBFC0 EQ PUSH2 0x84 JUMPI DUP1 PUSH4 0xBED34BBA EQ PUSH2 0xB4 JUMPI DUP1 PUSH4 0xF2FDE38B EQ PUSH2 0xE4 JUMPI JUMPDEST PUSH1 0x0 DUP1 REVERT JUMPDEST PUSH2 0x64 PUSH2 0x100 JUMP JUMPDEST STOP JUMPDEST PUSH2 0x6E PUSH2 0x188 JUMP JUMPDEST PUSH1 0x40 MLOAD PUSH2 0x7B SWAP2 SWAP1 PUSH2 0x898 JUMP JUMPDEST PUSH1 0x40 MLOAD DUP1 SWAP2 SUB SWAP1 RETURN JUMPDEST PUSH2 0x9E PUSH1 0x4 DUP1 CALLDATASIZE SUB DUP2 ADD SWAP1 PUSH2 0x99 SWAP2 SWAP1 PUSH2 0x663 JUMP JUMPDEST PUSH2 0x1B1 JUMP JUMPDEST PUSH1 0x40 MLOAD PUSH2 0xAB SWAP2 SWAP1 PUSH2 0x91A JUMP JUMPDEST PUSH1 0x40 MLOAD DUP1 SWAP2 SUB SWAP1 RETURN JUMPDEST PUSH2 0xCE PUSH1 0x4 DUP1 CALLDATASIZE SUB DUP2 ADD SWAP1 PUSH2 0xC9 SWAP2 SWAP1 PUSH2 0x6A4 JUMP JUMPDEST PUSH2 0x3A0 JUMP JUMPDEST PUSH1 0x40 MLOAD PUSH2 0xDB SWAP2 SWAP1 PUSH2 0x8FF JUMP JUMPDEST PUSH1 0x40 MLOAD DUP1 SWAP2 SUB SWAP1 RETURN JUMPDEST PUSH2 0xFE PUSH1 0x4 DUP1 CALLDATASIZE SUB DUP2 ADD SWAP1 PUSH2 0xF9 SWAP2 SWAP1 PUSH2 0x63A JUMP JUMPDEST PUSH2 0x3F9 JUMP JUMPDEST STOP JUMPDEST PUSH2 0x108 PUSH2 0x4F1 JUMP JUMPDEST PUSH20 0xFFFFFFFFFFFFFFFFFFFFFFFFFFFFFFFFFFFFFFFF AND PUSH2 0x126 PUSH2 0x188 JUMP JUMPDEST PUSH20 0xFFFFFFFFFFFFFFFFFFFFFFFFFFFFFFFFFFFFFFFF AND EQ PUSH2 0x17C JUMPI PUSH1 0x40 MLOAD PUSH32 0x8C379A000000000000000000000000000000000000000000000000000000000 DUP2 MSTORE PUSH1 0x4 ADD PUSH2 0x173 SWAP1 PUSH2 0x97C JUMP JUMPDEST PUSH1 0x40 MLOAD DUP1 SWAP2 SUB SWAP1 REVERT JUMPDEST PUSH2 0x186 PUSH1 0x0 PUSH2 0x4F9 JUMP JUMPDEST JUMP JUMPDEST PUSH1 0x0 DUP1 PUSH1 0x0 SWAP1 SLOAD SWAP1 PUSH2 0x100 EXP SWAP1 DIV PUSH20 0xFFFFFFFFFFFFFFFFFFFFFFFFFFFFFFFFFFFFFFFF AND SWAP1 POP SWAP1 JUMP JUMPDEST PUSH1 0x60 PUSH1 0x0 PUSH2 0x249 DUP4 PUSH1 0x3 DUP1 SLOAD PUSH2 0x1C6 SWAP1 PUSH2 0xAAE JUMP JUMPDEST DUP1 PUSH1 0x1F ADD PUSH1 0x20 DUP1 SWAP2 DIV MUL PUSH1 0x20 ADD PUSH1 0x40 MLOAD SWAP1 DUP2 ADD PUSH1 0x40 MSTORE DUP1 SWAP3 SWAP2 SWAP1 DUP2 DUP2 MSTORE PUSH1 0x20 ADD DUP3 DUP1 SLOAD PUSH2 0x1F2 SWAP1 PUSH2 0xAAE JUMP JUMPDEST DUP1 ISZERO PUSH2 0x23F JUMPI DUP1 PUSH1 0x1F LT PUSH2 0x214 JUMPI PUSH2 0x100 DUP1 DUP4 SLOAD DIV MUL DUP4 MSTORE SWAP2 PUSH1 0x20 ADD SWAP2 PUSH2 0x23F JUMP JUMPDEST DUP3 ADD SWAP2 SWAP1 PUSH1 0x0 MSTORE PUSH1 0x20 PUSH1 0x0 KECCAK256 SWAP1 JUMPDEST DUP2 SLOAD DUP2 MSTORE SWAP1 PUSH1 0x1 ADD SWAP1 PUSH1 0x20 ADD DUP1 DUP4 GT PUSH2 0x222 JUMPI DUP3 SWAP1 SUB PUSH1 0x1F AND DUP3 ADD SWAP2 JUMPDEST POP POP POP POP POP PUSH2 0x3A0 JUMP JUMPDEST SWAP1 POP DUP1 PUSH2 0x2CF JUMPI PUSH31 0x89BA2E02006919C6E72430D36362FD60DFF02291D9B6B204318147BA2B91CF CALLER ADDRESS PUSH1 0x2 PUSH1 0x0 PUSH1 0x40 MLOAD PUSH2 0x286 SWAP5 SWAP4 SWAP3 SWAP2 SWAP1 PUSH2 0x8B3 JUMP JUMPDEST PUSH1 0x40 MLOAD DUP1 SWAP2 SUB SWAP1 LOG1 DUP1 PUSH2 0x2CE JUMPI PUSH1 0x40 MLOAD PUSH32 0x8C379A000000000000000000000000000000000000000000000000000000000 DUP2 MSTORE PUSH1 0x4 ADD PUSH2 0x2C5 SWAP1 PUSH2 0x95C JUMP JUMPDEST PUSH1 0x40 MLOAD DUP1 SWAP2 SUB SWAP1 REVERT JUMPDEST JUMPDEST PUSH31 0x89BA2E02006919C6E72430D36362FD60DFF02291D9B6B204318147BA2B91CF CALLER ADDRESS PUSH1 0x2 PUSH1 0x1 PUSH1 0x40 MLOAD PUSH2 0x305 SWAP5 SWAP4 SWAP3 SWAP2 SWAP1 PUSH2 0x8B3 JUMP JUMPDEST PUSH1 0x40 MLOAD DUP1 SWAP2 SUB SWAP1 LOG1 PUSH1 0x4 DUP1 SLOAD PUSH2 0x31A SWAP1 PUSH2 0xAAE JUMP JUMPDEST DUP1 PUSH1 0x1F ADD PUSH1 0x20 DUP1 SWAP2 DIV MUL PUSH1 0x20 ADD PUSH1 0x40 MLOAD SWAP1 DUP2 ADD PUSH1 0x40 MSTORE DUP1 SWAP3 SWAP2 SWAP1 DUP2 DUP2 MSTORE PUSH1 0x20 ADD DUP3 DUP1 SLOAD PUSH2 0x346 SWAP1 PUSH2 0xAAE JUMP JUMPDEST DUP1 ISZERO PUSH2 0x393 JUMPI DUP1 PUSH1 0x1F LT PUSH2 0x368 JUMPI PUSH2 0x100 DUP1 DUP4 SLOAD DIV MUL DUP4 MSTORE SWAP2 PUSH1 0x20 ADD SWAP2 PUSH2 0x393 JUMP JUMPDEST DUP3 ADD SWAP2 SWAP1 PUSH1 0x0 MSTORE PUSH1 0x20 PUSH1 0x0 KECCAK256 SWAP1 JUMPDEST DUP2 SLOAD DUP2 MSTORE SWAP1 PUSH1 0x1 ADD SWAP1 PUSH1 0x20 ADD DUP1 DUP4 GT PUSH2 0x376 JUMPI DUP3 SWAP1 SUB PUSH1 0x1F AND DUP3 ADD SWAP2 JUMPDEST POP POP POP POP POP SWAP2 POP POP SWAP2 SWAP1 POP JUMP JUMPDEST PUSH1 0x0 DUP2 PUSH1 0x40 MLOAD PUSH1 0x20 ADD PUSH2 0x3B3 SWAP2 SWAP1 PUSH2 0x881 JUMP JUMPDEST PUSH1 0x40 MLOAD PUSH1 0x20 DUP2 DUP4 SUB SUB DUP2 MSTORE SWAP1 PUSH1 0x40 MSTORE DUP1 MLOAD SWAP1 PUSH1 0x20 ADD KECCAK256 DUP4 PUSH1 0x40 MLOAD PUSH1 0x20 ADD PUSH2 0x3DA SWAP2 SWAP1 PUSH2 0x881 JUMP JUMPDEST PUSH1 0x40 MLOAD PUSH1 0x20 DUP2 DUP4 SUB SUB DUP2 MSTORE SWAP1 PUSH1 0x40 MSTORE DUP1 MLOAD SWAP1 PUSH1 0x20 ADD KECCAK256 EQ SWAP1 POP SWAP3 SWAP2 POP POP JUMP JUMPDEST PUSH2 0x401 PUSH2 0x4F1 JUMP JUMPDEST PUSH20 0xFFFFFFFFFFFFFFFFFFFFFFFFFFFFFFFFFFFFFFFF AND PUSH2 0x41F PUSH2 0x188 JUMP JUMPDEST PUSH20 0xFFFFFFFFFFFFFFFFFFFFFFFFFFFFFFFFFFFFFFFF AND EQ PUSH2 0x475 JUMPI PUSH1 0x40 MLOAD PUSH32 0x8C379A000000000000000000000000000000000000000000000000000000000 DUP2 MSTORE PUSH1 0x4 ADD PUSH2 0x46C SWAP1 PUSH2 0x97C JUMP JUMPDEST PUSH1 0x40 MLOAD DUP1 SWAP2 SUB SWAP1 REVERT JUMPDEST PUSH1 0x0 PUSH20 0xFFFFFFFFFFFFFFFFFFFFFFFFFFFFFFFFFFFFFFFF AND DUP2 PUSH20 0xFFFFFFFFFFFFFFFFFFFFFFFFFFFFFFFFFFFFFFFF AND EQ ISZERO PUSH2 0x4E5 JUMPI PUSH1 0x40 MLOAD PUSH32 0x8C379A000000000000000000000000000000000000000000000000000000000 DUP2 MSTORE PUSH1 0x4 ADD PUSH2 0x4DC SWAP1 PUSH2 0x93C JUMP JUMPDEST PUSH1 0x40 MLOAD DUP1 SWAP2 SUB SWAP1 REVERT JUMPDEST PUSH2 0x4EE DUP2 PUSH2 0x4F9 JUMP JUMPDEST POP JUMP JUMPDEST PUSH1 0x0 CALLER SWAP1 POP SWAP1 JUMP JUMPDEST PUSH1 0x0 DUP1 PUSH1 0x0 SWAP1 SLOAD SWAP1 PUSH2 0x100 EXP SWAP1 DIV PUSH20 0xFFFFFFFFFFFFFFFFFFFFFFFFFFFFFFFFFFFFFFFF AND SWAP1 POP DUP2 PUSH1 0x0 DUP1 PUSH2 0x100 EXP DUP2 SLOAD DUP2 PUSH20 0xFFFFFFFFFFFFFFFFFFFFFFFFFFFFFFFFFFFFFFFF MUL NOT AND SWAP1 DUP4 PUSH20 0xFFFFFFFFFFFFFFFFFFFFFFFFFFFFFFFFFFFFFFFF AND MUL OR SWAP1 SSTORE POP DUP2 PUSH20 0xFFFFFFFFFFFFFFFFFFFFFFFFFFFFFFFFFFFFFFFF AND DUP2 PUSH20 0xFFFFFFFFFFFFFFFFFFFFFFFFFFFFFFFFFFFFFFFF AND PUSH32 0x8BE0079C531659141344CD1FD0A4F28419497F9722A3DAAFE3B4186F6B6457E0 PUSH1 0x40 MLOAD PUSH1 0x40 MLOAD DUP1 SWAP2 SUB SWAP1 LOG3 POP POP JUMP JUMPDEST PUSH1 0x0 PUSH2 0x5D0 PUSH2 0x5CB DUP5 PUSH2 0x9C1 JUMP JUMPDEST PUSH2 0x99C JUMP JUMPDEST SWAP1 POP DUP3 DUP2 MSTORE PUSH1 0x20 DUP2 ADD DUP5 DUP5 DUP5 ADD GT ISZERO PUSH2 0x5E8 JUMPI PUSH1 0x0 DUP1 REVERT JUMPDEST PUSH2 0x5F3 DUP5 DUP3 DUP6 PUSH2 0xA6C JUMP JUMPDEST POP SWAP4 SWAP3 POP POP POP JUMP JUMPDEST PUSH1 0x0 DUP2 CALLDATALOAD SWAP1 POP PUSH2 0x60A DUP2 PUSH2 0xC21 JUMP JUMPDEST SWAP3 SWAP2 POP POP JUMP JUMPDEST PUSH1 0x0 DUP3 PUSH1 0x1F DUP4 ADD SLT PUSH2 0x621 JUMPI PUSH1 0x0 DUP1 REVERT JUMPDEST DUP2 CALLDATALOAD PUSH2 0x631 DUP5 DUP3 PUSH1 0x20 DUP7 ADD PUSH2 0x5BD JUMP JUMPDEST SWAP2 POP POP SWAP3 SWAP2 POP POP JUMP JUMPDEST PUSH1 0x0 PUSH1 0x20 DUP3 DUP5 SUB SLT ISZERO PUSH2 0x64C JUMPI PUSH1 0x0 DUP1 REVERT JUMPDEST PUSH1 0x0 PUSH2 0x65A DUP5 DUP3 DUP6 ADD PUSH2 0x5FB JUMP JUMPDEST SWAP2 POP POP SWAP3 SWAP2 POP POP JUMP JUMPDEST PUSH1 0x0 PUSH1 0x20 DUP3 DUP5 SUB SLT ISZERO PUSH2 0x675 JUMPI PUSH1 0x0 DUP1 REVERT JUMPDEST PUSH1 0x0 DUP3 ADD CALLDATALOAD PUSH8 0xFFFFFFFFFFFFFFFF DUP2 GT ISZERO PUSH2 0x68F JUMPI PUSH1 0x0 DUP1 REVERT JUMPDEST PUSH2 0x69B DUP5 DUP3 DUP6 ADD PUSH2 0x610 JUMP JUMPDEST SWAP2 POP POP SWAP3 SWAP2 POP POP JUMP JUMPDEST PUSH1 0x0 DUP1 PUSH1 0x40 DUP4 DUP6 SUB SLT ISZERO PUSH2 0x6B7 JUMPI PUSH1 0x0 DUP1 REVERT JUMPDEST PUSH1 0x0 DUP4 ADD CALLDATALOAD PUSH8 0xFFFFFFFFFFFFFFFF DUP2 GT ISZERO PUSH2 0x6D1 JUMPI PUSH1 0x0 DUP1 REVERT JUMPDEST PUSH2 0x6DD DUP6 DUP3 DUP7 ADD PUSH2 0x610 JUMP JUMPDEST SWAP3 POP POP PUSH1 0x20 DUP4 ADD CALLDATALOAD PUSH8 0xFFFFFFFFFFFFFFFF DUP2 GT ISZERO PUSH2 0x6FA JUMPI PUSH1 0x0 DUP1 REVERT JUMPDEST PUSH2 0x706 DUP6 DUP3 DUP7 ADD PUSH2 0x610 JUMP JUMPDEST SWAP2 POP POP SWAP3 POP SWAP3 SWAP1 POP JUMP JUMPDEST PUSH2 0x719 DUP2 PUSH2 0xA2E JUMP JUMPDEST DUP3 MSTORE POP POP JUMP JUMPDEST PUSH2 0x728 DUP2 PUSH2 0xA40 JUMP JUMPDEST DUP3 MSTORE POP POP JUMP JUMPDEST PUSH1 0x0 PUSH2 0x739 DUP3 PUSH2 0xA07 JUMP JUMPDEST PUSH2 0x743 DUP2 DUP6 PUSH2 0xA12 JUMP JUMPDEST SWAP4 POP PUSH2 0x753 DUP2 DUP6 PUSH1 0x20 DUP7 ADD PUSH2 0xA7B JUMP JUMPDEST PUSH2 0x75C DUP2 PUSH2 0xB6F JUMP JUMPDEST DUP5 ADD SWAP2 POP POP SWAP3 SWAP2 POP POP JUMP JUMPDEST PUSH1 0x0 PUSH2 0x772 DUP3 PUSH2 0xA07 JUMP JUMPDEST PUSH2 0x77C DUP2 DUP6 PUSH2 0xA23 JUMP JUMPDEST SWAP4 POP PUSH2 0x78C DUP2 DUP6 PUSH1 0x20 DUP7 ADD PUSH2 0xA7B JUMP JUMPDEST DUP1 DUP5 ADD SWAP2 POP POP SWAP3 SWAP2 POP POP JUMP JUMPDEST PUSH1 0x0 DUP2 SLOAD PUSH2 0x7A5 DUP2 PUSH2 0xAAE JUMP JUMPDEST PUSH2 0x7AF DUP2 DUP7 PUSH2 0xA12 JUMP JUMPDEST SWAP5 POP PUSH1 0x1 DUP3 AND PUSH1 0x0 DUP2 EQ PUSH2 0x7CA JUMPI PUSH1 0x1 DUP2 EQ PUSH2 0x7DC JUMPI PUSH2 0x80F JUMP JUMPDEST PUSH1 0xFF NOT DUP4 AND DUP7 MSTORE PUSH1 0x20 DUP7 ADD SWAP4 POP PUSH2 0x80F JUMP JUMPDEST PUSH2 0x7E5 DUP6 PUSH2 0x9F2 JUMP JUMPDEST PUSH1 0x0 JUMPDEST DUP4 DUP2 LT ISZERO PUSH2 0x807 JUMPI DUP2 SLOAD DUP2 DUP10 ADD MSTORE PUSH1 0x1 DUP3 ADD SWAP2 POP PUSH1 0x20 DUP2 ADD SWAP1 POP PUSH2 0x7E8 JUMP JUMPDEST DUP1 DUP9 ADD SWAP6 POP POP POP JUMPDEST POP POP POP SWAP3 SWAP2 POP POP JUMP JUMPDEST PUSH1 0x0 PUSH2 0x825 PUSH1 0x26 DUP4 PUSH2 0xA12 JUMP JUMPDEST SWAP2 POP PUSH2 0x830 DUP3 PUSH2 0xB80 JUMP JUMPDEST PUSH1 0x40 DUP3 ADD SWAP1 POP SWAP2 SWAP1 POP JUMP JUMPDEST PUSH1 0x0 PUSH2 0x848 PUSH1 0x9 DUP4 PUSH2 0xA12 JUMP JUMPDEST SWAP2 POP PUSH2 0x853 DUP3 PUSH2 0xBCF JUMP JUMPDEST PUSH1 0x20 DUP3 ADD SWAP1 POP SWAP2 SWAP1 POP JUMP JUMPDEST PUSH1 0x0 PUSH2 0x86B PUSH1 0x20 DUP4 PUSH2 0xA12 JUMP JUMPDEST SWAP2 POP PUSH2 0x876 DUP3 PUSH2 0xBF8 JUMP JUMPDEST PUSH1 0x20 DUP3 ADD SWAP1 POP SWAP2 SWAP1 POP JUMP JUMPDEST PUSH1 0x0 PUSH2 0x88D DUP3 DUP5 PUSH2 0x767 JUMP JUMPDEST SWAP2 POP DUP2 SWAP1 POP SWAP3 SWAP2 POP POP JUMP JUMPDEST PUSH1 0x0 PUSH1 0x20 DUP3 ADD SWAP1 POP PUSH2 0x8AD PUSH1 0x0 DUP4 ADD DUP5 PUSH2 0x710 JUMP JUMPDEST SWAP3 SWAP2 POP POP JUMP JUMPDEST PUSH1 0x0 PUSH1 0x80 DUP3 ADD SWAP1 POP PUSH2 0x8C8 PUSH1 0x0 DUP4 ADD DUP8 PUSH2 0x710 JUMP JUMPDEST PUSH2 0x8D5 PUSH1 0x20 DUP4 ADD DUP7 PUSH2 0x710 JUMP JUMPDEST DUP2 DUP2 SUB PUSH1 0x40 DUP4 ADD MSTORE PUSH2 0x8E7 DUP2 DUP6 PUSH2 0x798 JUMP JUMPDEST SWAP1 POP PUSH2 0x8F6 PUSH1 0x60 DUP4 ADD DUP5 PUSH2 0x71F JUMP JUMPDEST SWAP6 SWAP5 POP POP POP POP POP JUMP JUMPDEST PUSH1 0x0 PUSH1 0x20 DUP3 ADD SWAP1 POP PUSH2 0x914 PUSH1 0x0 DUP4 ADD DUP5 PUSH2 0x71F JUMP JUMPDEST SWAP3 SWAP2 POP POP JUMP JUMPDEST PUSH1 0x0 PUSH1 0x20 DUP3 ADD SWAP1 POP DUP2 DUP2 SUB PUSH1 0x0 DUP4 ADD MSTORE PUSH2 0x934 DUP2 DUP5 PUSH2 0x72E JUMP JUMPDEST SWAP1 POP SWAP3 SWAP2 POP POP JUMP JUMPDEST PUSH1 0x0 PUSH1 0x20 DUP3 ADD SWAP1 POP DUP2 DUP2 SUB PUSH1 0x0 DUP4 ADD MSTORE PUSH2 0x955 DUP2 PUSH2 0x818 JUMP JUMPDEST SWAP1 POP SWAP2 SWAP1 POP JUMP JUMPDEST PUSH1 0x0 PUSH1 0x20 DUP3 ADD SWAP1 POP DUP2 DUP2 SUB PUSH1 0x0 DUP4 ADD MSTORE PUSH2 0x975 DUP2 PUSH2 0x83B JUMP JUMPDEST SWAP1 POP SWAP2 SWAP1 POP JUMP JUMPDEST PUSH1 0x0 PUSH1 0x20 DUP3 ADD SWAP1 POP DUP2 DUP2 SUB PUSH1 0x0 DUP4 ADD MSTORE PUSH2 0x995 DUP2 PUSH2 0x85E JUMP JUMPDEST SWAP1 POP SWAP2 SWAP1 POP JUMP JUMPDEST PUSH1 0x0 PUSH2 0x9A6 PUSH2 0x9B7 JUMP JUMPDEST SWAP1 POP PUSH2 0x9B2 DUP3 DUP3 PUSH2 0xAE0 JUMP JUMPDEST SWAP2 SWAP1 POP JUMP JUMPDEST PUSH1 0x0 PUSH1 0x40 MLOAD SWAP1 POP SWAP1 JUMP JUMPDEST PUSH1 0x0 PUSH8 0xFFFFFFFFFFFFFFFF DUP3 GT ISZERO PUSH2 0x9DC JUMPI PUSH2 0x9DB PUSH2 0xB40 JUMP JUMPDEST JUMPDEST PUSH2 0x9E5 DUP3 PUSH2 0xB6F JUMP JUMPDEST SWAP1 POP PUSH1 0x20 DUP2 ADD SWAP1 POP SWAP2 SWAP1 POP JUMP JUMPDEST PUSH1 0x0 DUP2 SWAP1 POP DUP2 PUSH1 0x0 MSTORE PUSH1 0x20 PUSH1 0x0 KECCAK256 SWAP1 POP SWAP2 SWAP1 POP JUMP JUMPDEST PUSH1 0x0 DUP2 MLOAD SWAP1 POP SWAP2 SWAP1 POP JUMP JUMPDEST PUSH1 0x0 DUP3 DUP3 MSTORE PUSH1 0x20 DUP3 ADD SWAP1 POP SWAP3 SWAP2 POP POP JUMP JUMPDEST PUSH1 0x0 DUP2 SWAP1 POP SWAP3 SWAP2 POP POP JUMP JUMPDEST PUSH1 0x0 PUSH2 0xA39 DUP3 PUSH2 0xA4C JUMP JUMPDEST SWAP1 POP SWAP2 SWAP1 POP JUMP JUMPDEST PUSH1 0x0 DUP2 ISZERO ISZERO SWAP1 POP SWAP2 SWAP1 POP JUMP JUMPDEST PUSH1 0x0 PUSH20 0xFFFFFFFFFFFFFFFFFFFFFFFFFFFFFFFFFFFFFFFF DUP3 AND SWAP1 POP SWAP2 SWAP1 POP JUMP JUMPDEST DUP3 DUP2 DUP4 CALLDATACOPY PUSH1 0x0 DUP4 DUP4 ADD MSTORE POP POP POP JUMP JUMPDEST PUSH1 0x0 JUMPDEST DUP4 DUP2 LT ISZERO PUSH2 0xA99 JUMPI DUP1 DUP3 ADD MLOAD DUP2 DUP5 ADD MSTORE PUSH1 0x20 DUP2 ADD SWAP1 POP PUSH2 0xA7E JUMP JUMPDEST DUP4 DUP2 GT ISZERO PUSH2 0xAA8 JUMPI PUSH1 0x0 DUP5 DUP5 ADD MSTORE JUMPDEST POP POP POP POP JUMP JUMPDEST PUSH1 0x0 PUSH1 0x2 DUP3 DIV SWAP1 POP PUSH1 0x1 DUP3 AND DUP1 PUSH2 0xAC6 JUMPI PUSH1 0x7F DUP3 AND SWAP2 POP JUMPDEST PUSH1 0x20 DUP3 LT DUP2 EQ ISZERO PUSH2 0xADA JUMPI PUSH2 0xAD9 PUSH2 0xB11 JUMP JUMPDEST JUMPDEST POP SWAP2 SWAP1 POP JUMP JUMPDEST PUSH2 0xAE9 DUP3 PUSH2 0xB6F JUMP JUMPDEST DUP2 ADD DUP2 DUP2 LT PUSH8 0xFFFFFFFFFFFFFFFF DUP3 GT OR ISZERO PUSH2 0xB08 JUMPI PUSH2 0xB07 PUSH2 0xB40 JUMP JUMPDEST JUMPDEST DUP1 PUSH1 0x40 MSTORE POP POP POP JUMP JUMPDEST PUSH32 0x4E487B7100000000000000000000000000000000000000000000000000000000 PUSH1 0x0 MSTORE PUSH1 0x22 PUSH1 0x4 MSTORE PUSH1 0x24 PUSH1 0x0 REVERT JUMPDEST PUSH32 0x4E487B7100000000000000000000000000000000000000000000000000000000 PUSH1 0x0 MSTORE PUSH1 0x41 PUSH1 0x4 MSTORE PUSH1 0x24 PUSH1 0x0 REVERT JUMPDEST PUSH1 0x0 PUSH1 0x1F NOT PUSH1 0x1F DUP4 ADD AND SWAP1 POP SWAP2 SWAP1 POP JUMP JUMPDEST PUSH32 0x4F776E61626C653A206E6577206F776E657220697320746865207A65726F2061 PUSH1 0x0 DUP3 ADD MSTORE PUSH32 0x6464726573730000000000000000000000000000000000000000000000000000 PUSH1 0x20 DUP3 ADD MSTORE POP JUMP JUMPDEST PUSH32 0x496E636F72726563740000000000000000000000000000000000000000000000 PUSH1 0x0 DUP3 ADD MSTORE POP JUMP JUMPDEST PUSH32 0x4F776E61626C653A2063616C6C6572206973206E6F7420746865206F776E6572 PUSH1 0x0 DUP3 ADD MSTORE POP JUMP JUMPDEST PUSH2 0xC2A DUP2 PUSH2 0xA2E JUMP JUMPDEST DUP2 EQ PUSH2 0xC35 JUMPI PUSH1 0x0 DUP1 REVERT JUMPDEST POP JUMP INVALID LOG2 PUSH5 0x6970667358 0x22 SLT KECCAK256 0x4A GAS DUP3 PUSH32 0x44473B108CA48EF4B834B3D7CCAD2408911BA2B5AFA808DA5C19800064736F6C PUSH4 0x43000804 STOP CALLER "
        },
        "methodIdentifiers": {
          "attempt(string)": "aeddbfc0",
          "compareStrings(string,string)": "bed34bba",
          "owner()": "8da5cb5b",
          "renounceOwnership()": "715018a6",
          "transferOwnership(address)": "f2fde38b"
        }
      }
    }
  }
}